:100000000C94CE000C94F6000C94F6000C94F600C0
:100010000C94F6000C94F6000C94F6000C94F60088
:100020000C94F6000C94F6000C9499050C940806B8
:100030000C94F6000C94F6000C94F6000C94F60068
:100040000C94F6000C94F6000C94F6000C94F60058
:100050000C94F6000C94F6000C94F6000C943A08FC
:100060000C94F6000C94F6000C94F6000C94F60038
:100070000C94F6000C94F6000C94F6000C94F60028
:100080000C94F6000C94F6000C94F6000C94F60018
:100090000C9484080C94F6000C94F6000C94F60072
:1000A0000C94F6000C94F6000C94F600000000028C
:1000B00000090F0000030401000C00000000000014
:1000C0000000000000000000000000080B00020219
:1000D00002000009040000010202000005240010D3
:1000E000010524010101042402060524060001077C
:1000F00005810310004009040100020A0000000706
:1001000005020240000007058302400000040309C5
:100110000412010002EF0201404123368000010178
:1001200002030141726475696E6F204C4C430041BB
:10013000726475696E6F204C656F6E6172646F00DA
:1001400000000000250028002B002E0031000000D8
:100150000000240027002A002D00300004040404BD
:10016000040304050202020204030202020206065C
:100170000606060604040202020404040802011032
:1001800040804010204080408008020401804020D0
:1001900010020110801020404020A30911241FBE2E
:1001A000CFEFDAE0DEBFCDBF11E0A0E0B1E0E0EFDD
:1001B000FAE102C005900D92A234B107D9F722E00E
:1001C000A2E4B1E001C01D92A937B207E1F710E047
:1001D000CEECD0E004C02197FE010E94700DCD3C12
:1001E000D107C9F70E94C4090C94760D0C94000045
:1001F00090E0FC01E558FE4F2491845A9E4FFC018B
:100200008491882399F090E0880F991FFC01E25BAC
:10021000FE4FA591B491FC01E05CFE4F8591949155
:100220008FB7F894EC91E22BEC938FBF0895FC010B
:1002300080911C02882311F13FB7F89482E08093EB
:10024000E9002091F200822F90E01816190614F4AC
:1002500081E090E0882339F0289844E640931B021F
:100260004091F1004083222339F02091F2002111C6
:1002700003C02BE62093E8003FBF08958FEF9FEF68
:1002800008952FB7F89483E08093E9009091E800F7
:10029000892F807295FF04C09091F20080E4891B41
:1002A0002FBF08958091130281110DC082E08093C9
:1002B0000F0284E080931002109212021092110239
:1002C00081E0809313028FE092E00895CF93DF9353
:1002D0001F92CDB7DEB76983DC01ED91FC910280FE
:1002E000F381E02D41E050E0BE016F5F7F4F099543
:1002F0000F90DF91CF91089583E08093E900809182
:10030000F200882319F08AE38093E80008950E94A0
:10031000410190E00895CF93DF931F92CDB7DEB7F0
:10032000FC018485958597FD08C02FEF3FEF358749
:1003300024870F90DF91CF910895CE0101960E94FE
:100340001701019719F4898190E0F3CF8FEF9FEFA8
:10035000F0CF0F931F93CF93DF931F92CDB7DEB7EC
:100360008C01FC018485958597FF0BC0CE01019619
:100370000E941701019771F4898190E0F801958737
:100380008487F801848595850F90DF91CF911F9127
:100390000F9108958FEF9FEFF1CFFC018485958534
:1003A00097FD0BC09FB7F89482E08093E90080919D
:1003B000F2009FBF90E0019608959FB7F89482E005
:1003C0008093E9008091F2009FBF90E008954091F2
:1003D000090250910A022091070230910802421747
:1003E0005307B4F49091E8009570E1F39091E80020
:1003F00092FD19C08093F1008091090290910A0248
:1004000001968F739927892B19F48EEF8093E8005A
:100410008091090290910A02019690930A028093BA
:10042000090281E0089580E00895EF92FF920F9312
:100430001F93CF93DF93F82E192FE62E042F81E020
:10044000860F880F0E94E70183E00E94E701CF2D0D
:10045000D12FEC0EFD2EF11CCE15DF05B9F007FFF4
:1004600013C0FE0184910E94E701182F80E00E94D2
:10047000E701812321968111EFCFDF91CF911F9169
:100480000F91FF90EF9008958881EDCF81E0F5CF37
:10049000DF92EF92FF920F931F93CF93DF93D82EAB
:1004A0008A01EB017B01E40EF51ECE15DF0559F044
:1004B000D7FE12C0FE0184910E94E70121968111AE
:1004C000F4CF0FEF1FEFC801DF91CF911F910F9174
:1004D000FF90EF90DF9008958881EECF0F931F93E8
:1004E000CF93DF931F92CDB7DEB782E0898342E4DA
:1004F00050E06BEC70E080E80E9448020E945201DC
:10050000DC0112960D911C910115110589F0D8019D
:10051000ED91FC910280F381E02DBE016F5F7F4F72
:10052000C801099597FD04C0F80100851185ECCF3D
:1005300089810F90DF91CF911F910F9108956150A4
:1005400030F02091F100FC0120830196F8CF28982B
:1005500084E680931B0208950895CF93DF93AC0146
:10056000E091E301F091E4013097F1F09091DC012A
:100570008091DB019817C0F090E0292F30E026171A
:10058000370754F4D901AE5BBE4F240F351FE90184
:1005900028812C939F5FF1CF1092DC016093DB01E7
:1005A000CB01DF91CF910994DF91CF910895282F4E
:1005B00030E0F901E455FF4F9491F901E558FE4F01
:1005C0008491245A3E4FF9012491222309F430C02A
:1005D0009923E9F091509F30D0F4E92FF0E0ED50ED
:1005E000FD4F0C94700D21032503020319031D0315
:1005F00007030703070328032E03320336033C03D4
:1006000007034003909180009F7790938000E22F32
:10061000F0E0EE0FFF1FE05CFE4FA591B4919FB795
:10062000F894EC91611132C080958E238C939FBF1A
:100630000895909180009F7DE8CF90918000977FF2
:10064000E4CF94B59F7794BDE2CF94B59F7DFBCF67
:10065000909190009F7790939000D9CF90919000C7
:100660009F7DF9CF90919000977FF5CF9091C0003A
:100670009F779093C000CBCF9091C0009F7DF9CF22
:100680009091C200977F9093C200C1CF8E2BCECFA6
:100690003FB7F8948091D1019091D201A091D301FC
:1006A000B091D40126B5A89B05C02F3F19F0019643
:1006B000A11DB11D3FBFBA2FA92F982F8827BC01BC
:1006C000CD01620F711D811D911D42E0660F771FE4
:1006D000881F991F4A95D1F708958F929F92AF92E4
:1006E000BF92CF92DF92EF92FF924B015C010E948A
:1006F00048036B017C010E9448036C197D098E0937
:100700009F09683E734081059105A8F321E0821A94
:100710009108A108B10888EEC80E83E0D81EE11C3C
:10072000F11C81149104A104B10429F7FF90EF900A
:10073000DF90CF90BF90AF909F908F9008958F9251
:100740009F92AF92BF92CF92DF92EF92FF920F9360
:100750001F93CF93DF936C017B018A0180910B0182
:10076000882309F45CC080911C02882309F457C0D7
:1007700080910E0280FF05C08091E000826080932E
:10078000E000E801B12C8AEFA82E93E0892E2AE33D
:10079000922E209711F4BB20D9F10E9441018111C2
:1007A0000AC0AA94AA20D9F161E070E080E090E04C
:1007B0000E946D03EECF8C171D0611F00CF08C2FEC
:1007C0009FB7F8948092E9002091E80025FD02C0CF
:1007D0009FBFDFCF282F30E0C21BD30BF701815022
:1007E00020F041914093F100FACFE20EF31EBB20BE
:1007F00021F09092E800B12CEBCF8091E80085FDCC
:10080000E7CF9092E800BB24B394209709F3F3CF8D
:100810005D9884E680930D02101611063CF081E08D
:1008200090E0F6019383828310E000E0C801DF913D
:10083000CF911F910F91FF90EF90DF90CF90BF90DD
:10084000AF909F908F9008952FB7F8946091CD014D
:100850007091CE018091CF019091D0012FBF08956A
:1008600020918201260F3327331F21323105ECF40A
:100870002091A601FC0190E080E0243069F082E044
:100880000895A09182012191AC014E595E4FA40FB1
:10089000B52FB11D2C930196861798F38091820194
:1008A000680F6093820180E0089581E008951092BE
:1008B000A60181E08093A8011092A70161E082E087
:1008C0000E94D70261E083E00E94D702E9EBF0E0EA
:1008D00080818E7F808380818D7F808388E4809378
:1008E000B80085E48093BC0008950895E091DC0190
:1008F0008091DB01E81730F4F0E0EE5BFE4F808181
:1009000090E008958FEF9FEF08959091DC01809122
:10091000DB012FEF3FEF981748F4E92FF0E0EE5B93
:10092000FE4F208130E09F5F9093DC01C901089564
:100930008091DB019091DC01891B990B0895CF9385
:10094000DF93CB01EA01642F0E943004CE01DF91D6
:10095000CF910895CF93DF931F92CDB7DEB7698310
:1009600061E0CE0101960E94300481E090E00F909A
:10097000DF91CF91089590E080E008959C01ECE034
:10098000F1E090E080E041914217130621F00196DA
:100990008B309105C1F708958F929F92AF92BF92CD
:1009A000CF92DF92EF92FF920F931F93CF93DF933B
:1009B000982E8FE090E00E94BE046C0186E090E0EB
:1009C0000E94BE045C0100EF11E085EEE82E81E09C
:1009D000F82ED0E0C0E088248394CC16DD0601F127
:1009E000AC16BD06E9F0F7018081882359F0992003
:1009F00049F0F801808261E0FE01E45FFE4F8081F2
:100A00000E94D702F8018081882351F0911008C01C
:100A1000108260E0FE01E45FFE4F80810E94D702F9
:100A200021960F5F1F4FFFEFEF1AFF0ACB30D10562
:100A3000A1F6DF91CF911F910F91FF90EF90DF9082
:100A4000CF90BF90AF909F908F900895CF93DF93FA
:100A5000EC018091DB019091DC01891B990B181648
:100A600019064CF48DE692E00E94850490930002F2
:100A70008093FF01EECFD0930602C0930502DF9171
:100A8000CF910895CF93DF9385ED8093BC00809143
:100A9000DE019091DF01A091E001B091E1010796A4
:100AA000A11DB11D23E0B695A795979587952A9529
:100AB000D1F72091BC0024FD03C01092A60136C0DE
:100AC0004091DE015091DF016091E0017091E10100
:100AD000452B462B472B69F30097A105B10541F043
:100AE0002AE22A95F1F700C00197A109B109E1CFE7
:100AF0008091DD0191E09093E2018823B9F0C091EB
:100B0000B800D091BA008091BC008A7B8093BC0071
:100B100060E082E00E94D70260E083E00E94D7029A
:100B20000E945704D093BA00C093B800DF91CF91D0
:100B300008951F920F920FB60F9211248F939F93D7
:100B40008091E1009091E100937F9093E10083FF19
:100B50000FC01092E90091E09093EB001092EC002E
:100B600092E39093ED0010921C0298E09093F000B5
:100B700082FF22C093E09093E9009091F2009923C4
:100B800019F09AE39093E80090910D02992341F0B7
:100B900090910D02915090930D02911101C05D9AB8
:100BA00090911B02992341F090911B0291509093D8
:100BB0001B02911101C0289A84FF18C08091E200A5
:100BC0008E7E81608093E2008091E1008F7E809331
:100BD000E10080910E028E7E806180930E029F91D3
:100BE0008F910F900FBE0F901F90189580FFF7CF39
:100BF0008091E2008E7E80618093E2008091E1002E
:100C00008E7E8093E10080910E028E7E8160E5CF22
:100C10001F920F920FB60F921124CF92DF92EF9294
:100C2000FF920F931F932F933F934F935F936F9375
:100C30007F938F939F93AF93BF93EF93FF93CF9344
:100C4000DF93CDB7DEB76C97DEBFCDBF1092E90062
:100C50008091E80083FF25C068E0CE0145960E94A0
:100C60009F0282EF8093E8008D8987FF39C09091C1
:100C7000E80090FFFCCF982F907609F034C19E8950
:100C80004F89588D2F89F88C911131C0803861F5CA
:100C900080910C028093F1001092F1008EEF80930E
:100CA000E8006C960FB6F894DEBF0FBECDBFDF91A3
:100CB000CF91FF91EF91BF91AF919F918F917F91D4
:100CC0006F915F914F913F912F911F910F91FF90E5
:100CD000EF90DF90CF900F900FBE0F901F90189560
:100CE0009EEF9093E800C7CF1092F100D5CF9130DE
:100CF00059F48111D3CF4130510581F680910C0216
:100D00008D7F80930C02CACF933049F48111C6CFF6
:100D10004130510519F680910C028260F2CF953076
:100D200041F48091E80080FFFCCF20682093E3002D
:100D3000B5CF963009F0A9C00B8D1C8D22E0109222
:100D4000E90010920A0210920902F2122EC01092CB
:100D50000802109207020E946E021F8299E0998396
:100D6000FA8291E09E8390EA98879AEF9987209182
:100D7000090230910A02275F3F4F3C832B838D830A
:100D80001092E90010920A021092090210930802D0
:100D90000093070249E050E0BE016F5F7F4F80E0A3
:100DA0000E9448020E946E0279CF109308020093BD
:100DB00007020E945201DC0112960D911C9101154F
:100DC000110509F451C1D801ED91FC910480F58120
:100DD000E02DBE016B5E7F4FC8010995009709F0B9
:100DE0003EC1F80100851185EACFF3E0FF120EC085
:100DF0008F89882309F440C0823061F440E860E1C3
:100E00008FE291E00E941502811148CF81E2809328
:100E1000EB0047CF813029F440E86BE083E291E0BA
:100E2000F1CF833099F70E945201DC011296ED90C8
:100E3000FC908E010F5F1F4F6801E114F10479F0FF
:100E4000D701ED91FC910680F781E02DB801C70133
:100E50000995080F111DF701E084F184EECFD80148
:100E60001C92F60101900020E9F73197BF016C193F
:100E70007D0940E0C601C6CF6DE071E0FB01449101
:100E800050E080E80E94480209CF973009F4BECFB5
:100E9000983021F481E08093F10000CF993009F07F
:100EA000FDCE837009F0B2CFE8E1F1E081E031E0FE
:100EB00096E32191222371F08093E9003093EB00B7
:100EC000DF0111972C912093EC009093ED008F5F40
:100ED000873079F78EE78093EA001092EA008F89D5
:100EE00080931C02DBCE8B8D9C8D1092E9001092BA
:100EF0000A02109209029093080280930702898DDA
:100F0000811192C08E899D89913A49F4813209F00C
:100F10007DCF47E050E064E071E080E0B3CF9132F4
:100F200009F074CF833269F48F89988DB0E0A0E026
:100F30008093000190930101A0930201B0930301FB
:100F4000ADCE803269F48091E80082FFFCCF67E08B
:100F500084E091E00E949F028BEF8093E8009ECE98
:100F6000823209F09BCE8F8980930B01EEEFFFE771
:100F7000859194918B3F9C4D51F1E0E0F8E0809198
:100F8000040190910501A0910601B0910701803BF9
:100F90009440A105B105F1F480910B0180FD1AC0C8
:100FA000EE3F8AE0F80789F587E797E7918380832A
:100FB0008091600080930B0288E19BE00FB6F8946B
:100FC000A895809360000FBE9093600067CEEEEF0F
:100FD000FAE0D5CF808191818737974709F05ECEBF
:100FE000A8958091600088618093600080910B02D9
:100FF00080936000EE3F2AE0F20789F08091FE0ABC
:101000009091FF0A9183808349CE808191818737B7
:10101000980751F29093FF0A8093FE0AC5CF109271
:10102000FF0A1092FE0A3ACE0E945201DC0112968B
:101030000D911C910115110509F4E8CED801ED912F
:10104000FC910190F081E02DBE016B5E7F4FC801E5
:101050000995811123CEF80100851185EBCF181673
:1010600019060CF41BCED2CEF1E0FF12BECE61E128
:1010700071E004CF1F920F920FB60F9211242F939D
:101080003F938F939F93AF93BF938091CD019091A6
:10109000CE01A091CF01B091D0013091CC0123E0DD
:1010A000230F2D3758F50196A11DB11D2093CC01BA
:1010B0008093CD019093CE01A093CF01B093D00146
:1010C0008091D1019091D201A091D301B091D4012E
:1010D0000196A11DB11D8093D1019093D201A093DF
:1010E000D301B093D401BF91AF919F918F913F9164
:1010F0002F910F900FBE0F901F90189526E8230F89
:101100000296A11DB11DD2CF1F920F920FB60F9262
:1011100011242F933F934F935F936F937F938F93FC
:101120009F93AF93BF93EF93FF938091B900887F14
:10113000803609F44AC0F0F5883209F4A7C018F5E2
:10114000803109F49BC0B8F4882309F4F9C08830D1
:1011500009F494C0FF91EF91BF91AF919F918F914E
:101160007F916F915F914F913F912F910F900FBEA3
:101170000F901F901895883109F488C0803251F77C
:101180008093A50114C0803409F49DC040F48033DD
:10119000B9F38833F9F68093A50185ECB0C08035AA
:1011A00009F485C0883509F496C0883499F60E9400
:1011B0004205D0CF883909F48CC038F5883729F03A
:1011C00050F4883611F0803729F683E08093A60129
:1011D0001092A40157C0883809F47BC0803919F0F7
:1011E000803809F0B7CF8091A401803208F071C037
:1011F000E091A40181E08E0F8093A4018091BB0057
:10120000F0E0EC57FE4F80833DC0803B39F0E0F4C6
:10121000803A09F479C0883A09F09CCF84E0809341
:10122000A6011092830110928201E091D701F09102
:10123000D80109958091820181110FC081E08093CE
:1012400082011092620109C0803C09F4A6CF883C5B
:1012500009F4A3CF883B09F07DCFE091830181E0C1
:101260008E0F80938301F0E0EE59FE4F80818093D2
:10127000BB00909183018091820129C08091CB01B4
:101280008093BB0085EC8093BC0064CF9091CA0131
:101290008091C901981758F5E091CA0181E08E0F3D
:1012A0008093CA01F0E0E755FE4F8081E9CFE091DD
:1012B000CA0181E08E0F8093CA018091BB00F0E0EB
:1012C000E755FE4F80839091CA018091C90198171C
:1012D000C8F285E8D8CFE091CA0181E08E0F8093F3
:1012E000CA018091BB00F0E0E755FE4F80838091FA
:1012F000A80181115CCF81E08093A70184EA8093EB
:10130000BC001092A60126CF85EC8093BC00109201
:10131000A6018091A401803230F4E091A401F0E0B4
:10132000EC57FE4F10826091A40170E0E091D5016E
:10133000F091D60184E891E009951092A4010ACFBA
:101340001092A50134CFEDE1F2E01382128288EE13
:1013500093E0A0E0B0E084839583A683B78322E284
:1013600031E0318320832FEF3FEF35872487EDE68F
:10137000F2E01382128284839583A683B78384E389
:1013800091E0918380830895789484B5826084BDD0
:1013900084B5816084BD85B5826085BD85B5816079
:1013A00085BD80916E00816080936E0010928100F7
:1013B00080918100826080938100809181008160B2
:1013C0008093810080918000816080938000809173
:1013D0009100826080939100809191008160809360
:1013E0009100809190008160809390008091C10075
:1013F00084608093C1008091C10082608093C100AD
:101400008091C10081608093C1008091C3008160A0
:101410008093C3008091C00082608093C00080915F
:10142000C20081608093C20080917A0084608093C2
:101430007A0080917A00826080937A0080917A00AD
:10144000816080937A0080917A00806880937A002E
:1014500010921C0210920C0210920E028091D70082
:1014600081608093D70080EA8093D80089B580613D
:1014700089BD89B5826089BD09B400FEFDCF61E0F8
:1014800070E080E090E00E946D038091D8008F7C36
:1014900080618093D8008091E000807F8093E0009D
:1014A0008091E1008E7E8093E1008DE08093E200E8
:1014B000559A209A8EE00E94F80084E00E94F8007D
:1014C00086E00E94F8008FE00E94F8008AE00E9407
:1014D000F80080E10E94F80085E00E94F80087E0B3
:1014E0000E94F80088E00E94F80089E00E94F8005D
:1014F00082E10E94F8001092DC011092DB01109250
:10150000DA011092D9010E9457048CEA92E090937C
:10151000D8018093D7018DEA92E09093D601809311
:10152000D50180EB8093BA001092E20188E893E144
:10153000A0E0B0E08093DE019093DF01A093E00192
:10154000B093E10181E08093DD018091E20110928E
:10155000E20186E295E09093E4018093E3010E942A
:10156000240460930102709302028093030290931B
:101570000402C1E000E010E08091050290910602B3
:10158000892B09F473C08091010290910202A0910D
:101590000302B09104021092060210920502892BF8
:1015A0008A2B8B2B51F40E942404609301027093C8
:1015B00002028093030290930402E091FF01F091F4
:1015C00000023197ED31F10508F04CC0E651F54FBE
:1015D0000C94700D070B950BC60BF70B020D320B1D
:1015E0002C0C370C450C670C5B0C510C720C890CE5
:1015F000930C9E0CA80CB30CBD0C1A0DC80CF60C69
:10160000240D340D440D460D510D5B0D660D80EF1C
:10161000C82E81E0D82EF12CE12CF60181916F01CA
:10162000882349F03197108260E0F701E45FFE4FB4
:1016300080810E94D702FFEFEF1AFF0A2BE0E2162B
:10164000F10459F71092FB011092FC011092FD0178
:101650001092FE01109201021092020210920302F7
:1016600010920402109200021092FF01C090010239
:10167000D0900202E0900302F0900402C114D10461
:10168000E104F104F9F00E9424046C197D098E092B
:101690009F0960387E4E8F4F9F4FA0F089E090E009
:1016A0000E94BE0480519E4FFC01C08361E089E02E
:1016B0000E94D702109201021092020210920302BD
:1016C00010920402C090FB01D090FC01E090FD015B
:1016D000F090FE01C114D104E104F104F9F00E947C
:1016E00024046C197D098E099F09603777418105B3
:1016F0009105A0F08EE090E00E94BE0480519E4FC4
:10170000FC01108260E08EE00E94D7021092FB0183
:101710001092FC011092FD011092FE0101151105BD
:1017200009F42ACF0E94000027CF88E090E00E94B1
:10173000BE0480519E4FFC01C08361E088E00E949E
:10174000D70287E090E00E94BE0480519E4FFC01CA
:10175000C08361E087E00E94D70282E190E00E94AE
:10176000BE0480519E4FFC01C08361E082E10E9473
:10177000D7028EE090E00E94BE0480519E4FFC0193
:10178000C08361E08EE00E94D7026CCF88E090E0D9
:101790000E94BE0480519E4FFC01108260E088E0F0
:1017A0000E94D70287E090E00E94BE0480519E4FC5
:1017B000FC01108260E087E00E94D70282E190E0A5
:1017C0000E94BE0480519E4FFC01108260E082E1C5
:1017D0000E94D7028EE090E00E94BE0480519E4F8E
:1017E000FC01108260E08EE00E94D7022BCF6CE2F9
:1017F00071E080E090E00E946D0388E090E00E943C
:10180000BE0480519E4FFC01108260E088E00E947F
:10181000D70287E090E00E94BE0480519E4FFC01F9
:10182000108260E087E00E94D7028EE090E00E9484
:10183000BE0480519E4FFC01C08361E08EE00E9497
:10184000D7020E9424046093FB017093FC018093F3
:10185000FD019093FE0106CF84E090E00E94BE045B
:1018600080519E4FFC01C08361E084E08CCF84E016
:1018700090E00E94BE04FC01E051FE4F10828B51AB
:101880009E4FFC01108260E0F0CF86E090E00E9465
:10189000BE0480519E4FFC01C08361E086E00E943F
:1018A000D7028FE090E00E94BE0480519E4FFC0161
:1018B000108260E02CC08FE090E00E94BE04805156
:1018C0009E4FFC01C08361E08FE00E94D70286E05A
:1018D00090E00E94BE0480519E4FFC01108260E0A7
:1018E00086E051CF86E090E00E94BE0480519E4F7A
:1018F000FC01C08361E086E00E94D7028FE090E0A7
:101900000E94BE0480519E4FFC01C08361E08FE0C5
:101910003ACF86E090E00E94BE0480519E4FFC01C9
:10192000108260E0BBCF8AE090E00E94BE0480514C
:101930009E4FFC01C08361E08AE025CF8AE090E001
:101940000E94BE0480519E4FFC01108260E0F4CFE3
:1019500080E190E00E94BE0480519E4FFC01C08354
:1019600061E080E110CF80E190E00E94BE048051F0
:101970009E4FFC01108260E0F4CF82E190E00E9473
:10198000BE0480519E4FFC01C08361E082E1FBCE2A
:1019900080E190E00E94BE0480519E4FFC01C08314
:1019A00061E080E10E94D70288E090E00E94BE04DE
:1019B00080519E4FFC01C08361E088E00E94D70205
:1019C00087E090E00E94BE0480519E4FFC01C083DE
:1019D00061E087E00E94D70282E190E00E94BE04AD
:1019E00080519E4FFC01C08361E0F1CE80E190E028
:1019F0000E94BE0480519E4FFC01108260E080E195
:101A00000E94D70288E090E00E94BE0480519E4F61
:101A1000FC01108260E088E00E94D70287E090E03D
:101A20000E94BE0480519E4FFC01108260E087E05E
:101A30000E94D70282E190E00E94BE0480519E4F36
:101A4000FC01108260E0A2CFA0EFB1E0E5EEF1E092
:101A50008D91882339F0C083319621E0AB3FB207E6
:101A6000B9F700CE1082F8CF8AE090E00E94BE0461
:101A700080519E4FFC01108260E08AE00E94D702F4
:101A800081E00E94CC04EECD80E0FBCF89E090E0C5
:101A90000E94BE0480519E4FFC01C08361E089E03A
:101AA00072CE89E090E00E94BE0480519E4FFC01FE
:101AB000108260E0F4CF85E090E00E94BE04805187
:101AC0009E4FFC01C08361E085E05DCE85E090E043
:101AD0000E94BE0480519E4FFC01108260E0F4CF52
:101AE000EE0FFF1F0590F491E02D0994F894FFCFBD
:101AF000FFFFFFFF00E1000000000000120F0E10CA
:101B00000A04050607080900C180810000000000E2
:101B1000000066019F0387017C01CD018B01A901B3
:101B200000000000AA049F04BB0475049804850407
:021B3000760439
:00000001FF
